:020000040000FA
:020000001028C6
:10002000A801A201A101A401A501A6010130A70018
:10003000831603178901811303138316F03086009A
:100040008701880183120313F03086008701FF3097
:100050008700A900AA00AB00AC00AD00AF0088018A
:10006000A101D220A200880000302806031D3B28F1
:1000700029088700592801302806031D42282A082C
:100080008700592802302806031D49282B088700BD
:10009000592803302806031D50282C0887005928AA
:1000A00004302806031D57282D08870059282F08DB
:1000B0008700A80AF0300606031D5F28EE28A0007E
:1000C000031383160F308600831203130F3086004C
:1000D0000F300606A004FF3087000330A700A50BF1
:1000E0006F28A60B6F28A70B6F28A501A6018830E3
:1000F00020060319C328A10A843020060319C32847
:10010000A10A823020060319C328A10A81302006E3
:100110000319C328A10A483020060319C328A10ADD
:10012000443020060319C328A10A423020060319CF
:10013000C328A10A413020060319C328A10A283088
:1001400020060319C328A10A243020060319C32856
:10015000A10A223020060319C328A10A2130200653
:100160000319C328A10A183020060319C328A10ABD
:10017000143020060319C328A10A123020060319DF
:10018000C328A10AC3282D08AF002C08AD002B08F6
:10019000AC002A08AB002908AA00DC20A40024092E
:1001A000A900EE28280882072034103408340434CB
:1001B00002340134A8012034210882070E340134AE
:1001C0003734493405344F347D346F343F345B3435
:1001D0006D347F346434063466340734A50BEE285E
:1001E000A5010830A600FF308700A501A601031372
:1001F0008316F030860083120313F0308600302817
:00000001FF
